:1000000078C0000091C000008FC000008DC00000CB
:100010008BC0000089C0000087C0000085C00000C0
:1000200083C0000081C000007FC000009BC40000AE
:10003000DDC0000079C0000077C0000081C0000072
:1000400073C0000071C000006FC000006DC00000F0
:100050006BC0000069C0000067C0000065C0000000
:1000600063C0000061C000005FC000005DC0000010
:100070005BC000001201100100000008A303492B1F
:100080000000010203010902200001010080320981
:1000900004000002FFFFFF000705830310000107B3
:1000A00005040304000504030904100355004F0070
:1000B00053002F00740068006B0000001803530009
:1000C000650063006F006E0064002000540065004E
:1000D0007300740000001A0330003000300030005C
:1000E0003000300030003000300030003000300090
:1000F000000011241FBECFEFD2E0DEBFCDBF11E064
:10010000A0E0B1E0E0EBFAE002C005900D92A23071
:10011000B107D9F711E0A2E0B1E001C01D92A7310B
:10012000B107E1F76BD1C2C46BCF1092E900E0EFE9
:10013000F0E080818860808308950895089508958F
:100140001F920F920FB60F9211248F939F9380915D
:100150000D01813019F08230E1F52FC0809102014C
:10016000823031F0833031F0813031F4459805C070
:10017000469803C0479801C0449882E080930601E6
:10018000109281001092850010928400B19A8091A3
:100190006F008D7F80936F0084EC99E090938900CD
:1001A000809388001092800085E080938100809188
:1001B0006F00826080936F000EC0109281001092D9
:1001C000850010928400B19A80916F008D7F80939A
:1001D0006F00109206018091060180930D019F919E
:1001E0008F910F900FBE0F901F9018951F920F9236
:1001F0000FB60F9211242F933F934F935F936F93FA
:100200007F938F939F93AF93BF93EF93FF938091CF
:10021000F40080FF0BC08091F4008E7F8093F40087
:1002200083D38091E800877F8093E8008091F40079
:1002300083FF52C083E08093E9008091E8008E7FC5
:100240008093E8008091F400877F8093F400809190
:10025000090190910A0101968093F1009093F100B9
:1002600001968093F1009093F10001968093F10044
:100270009093F1009C012F5F3F4F30930A01209330
:1002800009012093F1003093F1008091E8008F770D
:100290008093E8008091E80085FF1EC0C9010196A7
:1002A0008093F1009093F10001968093F100909378
:1002B000F10001968093F1009093F10001969093E4
:1002C0000A01809309018093F1009093F1008091DD
:1002D000E8008F778093E8008091F40084FF5DC090
:1002E00084E08093E9008091E8008B7F8093E800B0
:1002F0008091F4008F7E8093F4008091F100682F4C
:1003000070E02091F100922F80E0682B792B7093A0
:100310000C0160930B018091F100482F50E0209177
:10032000F100922F80E0482B592B509310014093FD
:100330000F018091E8008F778093E80080910D0194
:10034000882359F5709303016093020150930501CE
:100350004093040181E080930D0182E080930601C7
:1003600056954795509389004093880010928000DD
:1003700085E08093810080916F00826080936F00A0
:10038000623031F0633031F0613031F4459A05C0AC
:10039000469A03C0479A01C0449AFF91EF91BF91DA
:1003A000AF919F918F917F916F915F914F913F910D
:1003B0002F910F900FBE0F901F901895EF92FF9204
:1003C0000F9383E063E041E020E130E004E0E4D01B
:1003D00090EFE92EF12CF70180818160808384E029
:1003E00063E040E024E030E000E0D6D0F701808117
:1003F000846080830F91FF90EF90089584B7877F8A
:1004000084BF88E10FB6F89480936000109260007A
:100410000FBE90E080E80FB6F8948093610090934F
:1004200061000FBE3A9A4298B0D0429A88B18F705C
:1004300088B987B1806F87B91092810010928500CA
:1004400010928400B19A80916F008D7F80936F002D
:10045000FFCFDA01923049F0933061F0913029F505
:10046000E4E7F0E022E130E024C0E6E8F0E020E25A
:1004700030E01FC0813059F0813028F0823059F0CF
:10048000833099F40CC0E6EAF0E084910BC0EAEA0C
:10049000F0E0849107C0ECEBF0E0849103C0E6ED5E
:1004A000F0E08491282F30E004C0E0E0F0E020E0AC
:1004B00030E0ED93FC93C9010895DF93CF9300D012
:1004C000CDB7DEB749D24BD210921501109213016D
:1004D00010921601109212011092110184E089BD50
:1004E00089B5826089BD09B400FEFDCF8091D80036
:1004F000982F9F779093D80080688093D800809140
:1005000063008E7F809363008091D8008F7D8093FD
:10051000D80080E091E060E0AE014F5F5F4F99DF6F
:10052000892B31F0E981FA813796E491E09300015B
:100530008091E0008E7F8093E0008091E2008160F6
:100540008093E2008091E20088608093E2000F9047
:100550000F90CF91DF91089580911501882309F0C4
:10056000EDDD8091E00081608093E000F5D1F7D16E
:100570001092150110921401109213018091D8006D
:100580008F778093D80019BC0895E6DF96DF81E06D
:1005900080931401789408950F938093E9008091DB
:1005A000EB0081608093EB001092ED006295660F86
:1005B000660F607C642B6093EC002930310510F4E9
:1005C00080E00BC02131310510F480E106C02132FA
:1005D000310510F080E301C080E20260802B80933F
:1005E000ED008091EE00881F8827881F0F910895E5
:1005F0001092F40090E09093E9001092F0001092B5
:10060000E8008091ED008D7F8093ED008091EB00FC
:100610008E7F8093EB009F5F953069F708950F936D
:100620001F93DF93CF9300D000D0CDB7DEB760919A
:10063000F1005091F100553009F494C0563048F45F
:10064000513009F44AC0513070F0533009F053C1B1
:1006500044C0583009F40DC1593009F425C1563051
:1006600009F049C19AC0603819F0623809F043C1F5
:100670008091F1008091F1008091F100603821F0CB
:10068000623851F090E014C09091110180911201F4
:10069000882371F092600CC08093E9008091EB0098
:1006A00090E025E0969587952A95E1F7982F91702F
:1006B0001092E9008091E800877F8093E800909392
:1006C000F1001092F1008091E8008E7F8093E800A5
:1006D0008091E80082FFFCCFE1C0623009F00BC1DD
:1006E0008091F1004091F1007091F1006091F10072
:1006F000342F20E090E0282B392B232B09F0FDC06C
:1007000080E0272F282B277009F4F7C02093E900F9
:100710008091EB0080FF1BC05130A1F48091EB0071
:1007200080618093EB0081E090E002C0880F991F08
:100730002A95E2F78093EA001092EA008091EB009C
:10074000886003C08091EB0080628093EB00109280
:10075000E9008091E800877F8093E8008091E800BD
:100760008E7F9FC0662309F0C6C09091F1008091F2
:10077000E800877F8093E8008091E80080FFFCCF4D
:100780008091E8008E7F8093E8008091E80080FFF0
:10079000FCCF90689093E300B0C0862F80588230E1
:1007A00008F0A9C04091F1006091F1002091F100A2
:1007B000E091F1000091F1001091F100962F80E09E
:1007C00050E07E2F60E030E0622B732B842B952B62
:1007D000AE014F5F5F4F3DDEAC01009709F48DC065
:1007E0008091E800877F8093E800912F80E0202FA0
:1007F00030E0282B392B2417350708F4A901609124
:10080000000129813A8190E021C08091E80082FDB9
:1008100045C08091E80080FFF8CF09C0F9012F5F43
:100820003F4FE491E093F1004150504021F080911E
:10083000F200861798F38091F20090E0861709F491
:1008400091E08091E8008E7F8093E800411551058A
:1008500001F7992349F08091E80080FFFCCF809157
:10086000E8008E7F8093E8008091E80082FFFCCF53
:1008700015C0603809F03FC08091E800877F809301
:10088000E800809113018093F1008091E8008E7F51
:100890008093E8008091E80082FFFCCF8091E8001F
:1008A0008B7F8093E80029C0662329F51091F10021
:1008B0000091130180E091E0AE014D5F5F4FC9DD13
:1008C000892BD9F0EB81FC817196E491E117A8F0B6
:1008D0008091E800877F8093E80010931301809156
:1008E000E8008E7F8093E800002319F4112309F0BB
:1008F000DCD064DD02C0852F22DC8091E80083FF1C
:100900000AC08091EB0080628093EB008091E80048
:10091000877F8093E8000F900F900F900F90CF91FA
:10092000DF911F910F9108950F931F9380911501EF
:10093000882379F00091E9001092E9008091E800A5
:1009400083FF04C01FB7F8946ADE1FBF07700093CF
:10095000E9001F910F9108951092E20008951092FE
:10096000E10008951F920F920FB60F9211240F937A
:100970002F933F934F935F936F937F938F939F93A7
:10098000AF93BF93EF93FF938091E10080FF24C06A
:100990008091E20080FF20C08091E1008E7F8093F3
:1009A000E1008091E2008E7F8093E2008091E2007E
:1009B00080618093E2008091D80080628093D800AB
:1009C00019BC81E08093160170D0809115018823B5
:1009D00019F010921501B2DB8091E10084FF2BC069
:1009E0008091E20084FF27C084E089BD89B58260E0
:1009F00089BD09B400FEFDCF8091D8008F7D809322
:100A0000D8008091E1008F7E8093E1008091E20028
:100A10008F7E8093E2008091E20081608093E2000B
:100A200080911501882321F481E08093150185DBF5
:100A3000109216013AD08091E10083FF24C080918A
:100A4000E20083FF20C08091E100877F8093E10076
:100A5000109213018091E1008E7F8093E1008091DC
:100A6000E2008E7F8093E2008091E20080618093BB
:100A7000E200BEDD2091000180E060E040E030E077
:100A800000E08ADD52DBFF91EF91BF91AF919F9122
:100A90008F917F916F915F914F913F912F910F9126
:100AA0000F900FBE0F901F9018950895F894FFCFE8
:020AB00008003C
:00000001FF
