:1000000089C00000A3C00000A1C000009FC0000084
:100010009DC000009BC0000099C0000097C0000078
:1000200095C0000093C0000091C000000C94F80D32
:100030008DC000008BC00000A2C4000046C40000B8
:1000400071C4000083C0000013C400007FC0000022
:100050007DC00000BAC3000079C0000077C0000076
:1000600075C0000073C0000071C000006FC00000C8
:100070006DC000001201100102000008A303492B0B
:1000800000000102030109021200010100C032094F
:1000900004000000FF0000000403090428037700A7
:1000A000770077002E004100560052006F0070006C
:1000B00065006E0064006F00750073002E006F0015
:1000C00072006700000030034C006F006F0070008A
:1000D0006200610063006B00200043006F006E004F
:1000E000740072006F006C00450050002000440056
:1000F00065006D006F0000001A0330003000300012
:10010000300030003000300030003000300030006F
:100110003000000011241FBECFEFD2E0DEBFCDBF04
:1001200011E0A0E0B1E0E2E6FDE102C005900D9231
:10013000AC30B107D9F711E0ACE0B1E001C01D92DD
:10014000A93EB107E1F755D20C94AF0E59CF88EE16
:1001500093E020E931E0F9013197F1F70197D9F700
:1001600086EA0E94280A8EEF3CD48093C70185E07E
:1001700038D48093C7010E948B0A88EE93E020E96F
:1001800031E0F9013197F1F70197D9F786EA0E943A
:10019000280A80EF26D48093C70185E522D4809376
:1001A000C7010E948B0A88EE93E020E931E0F90153
:1001B0003197F1F70197D9F784EA0E94280A8AEF6C
:1001C00010D48093C7010E948B0A88EE93E020E947
:1001D00031E0F9013197F1F70197D9F785EA0E94EB
:1001E000280A81E005D68093C60181E001D680937C
:1001F000C70181E0FDD58093C80181E0F9D58093E6
:10020000C90181E0F5D58093CA0180E0F1D58093E2
:10021000CB010E948B0A88EE93E020E931E0F901DE
:100220003197F1F70197D9F784EA0E94280A88E00C
:10023000D8D38093C7010C948B0A84EA0E94280AC1
:1002400080E0CFD30E948B0A88EB9BE00197F1F707
:1002500085EA0E94280A81E0CBD58093C60181E01F
:10026000C7D58093C70181E0C3D58093C80181E0E1
:10027000BFD58093C90181E0BBD58093CA0180E0DE
:10028000B7D58093CB010E948B0A2091CB01822F9E
:1002900090E0837090700097B9F48091C6018093CC
:1002A0003D018091C70180933E018091C8018093F8
:1002B0003F018091C901809340018091CA018093E0
:1002C00041012093420118C00297B1F48091C60108
:1002D000809343018091C701809344018091C801BC
:1002E000809345018091C901809346018091CA01A4
:1002F000809347012093480180EA9FE00197F1F73E
:10030000089580911001882381F00E94D00D88E823
:1003100093E120E931E0F9013197F1F70197D9F73D
:10032000E0910A01F0910B01099508958091130164
:1003300090911401892B99F08DE391E060E470E0D5
:100340000E942A0D8091E800982F9B7F9093E800EF
:100350008F778093E800109214011092130180911E
:10036000110190911201892B09F4BCC08DE791E035
:1003700060E470E00E94760D80917D01813089F506
:1003800080910901882309F473C0109209014298F1
:1003900080917E01482F50E090917F0180E0209174
:1003A0008001820F911D90933A018093390141158C
:1003B000510511F4449A0EC04130510511F4459A8B
:1003C00009C04230510511F4469A04C0433051052A
:1003D00009F4479A88519C4F90933A0180933901D0
:1003E00047C0823051F52F98429888EE93E020E97B
:1003F00031E0F9013197F1F70197D9F7429A88EE88
:1004000093E020E931E0F9013197F1F70197D9F74D
:10041000429888EE93E020E931E0F9013197F1F755
:100420000197D9F7429A88EE93E020E931E0F9018B
:100430003197F1F70197D9F71BC08330B1F42F9AA8
:10044000429880ED97E020E931E0F9013197F1F72A
:100450000197D9F7429A80ED97E020E931E0F90160
:100460003197F1F70197D9F703C08B3F09F46FDE9D
:1004700080917D018E3F31F58091850080933D0113
:100480008091840080933E018091890080933F0198
:1004900080918800809340019091BD018091BE01C0
:1004A00080934101909342018091C4018093430164
:1004B0008091BF0180934401809115018093450193
:1004C000109246015A9AB9DEB8DE8091E800982F62
:1004D0009E7F9093E8008F778093E800109212013E
:1004E0001092110108958091C4019091C501019667
:1004F0009093C5018093C40185B1807480934D01B0
:1005000015DF8091390190913A01181619062CF4E3
:10051000019790933A01809339018091390190912C
:100520003A0123E0883E920784F44598469847981C
:100530004498892B51F481E080930901429A8FEF0E
:100540009FEF90933A01809339018091840090E06D
:10055000409185000F96342F20E0820F931F9093D7
:10056000890080938800089580918400909185008F
:1005700090930D0180930C018091E101813019F07D
:10058000823039F513C08091E001803C11F58091F3
:10059000E800877F8093E800809113019091140117
:1005A0000196909314018093130108958091E001C6
:1005B000803479F48091E800877F8093E80080910F
:1005C00011019091120101969093120180931101F3
:1005D000ADCE089581E891E061E00C944F0B87E97E
:1005E0009EE060E00C944F0B87E99EE061E00C9484
:1005F0004F0BCF93DF9384B7877F84BF88E10FB61B
:10060000F89480936000109260000FBE80E090E04C
:1006100020E80FB6F89420936100809361000FBE2C
:100620001AB88FEF8BB914B885B917B888B1846F31
:1006300088B9EDE3F1E080E090E002C0119201960C
:1006400080349105D8F3EDE7F1E080E090E002C05E
:100650001192019680349105D8F31092800084E0C5
:1006600080938100809184009091850090930D018A
:1006700080930C0180934301909344018FEF84B9E0
:1006800085B988B18F7088B987B1806F87B9279A8B
:1006900026982F9882E08093D8010E94EA0D80E28C
:1006A0009EE420E931E0F9013197F1F70197D9F79C
:1006B00093D188E893E120E931E0F9013197F1F72E
:1006C0000197D9F744DD88E893E120E931E0F901A9
:1006D0003197F1F70197D9F73A9A429A0E94EA0DB9
:1006E00080916F008D7F80936F0085E05CD082E009
:1006F00063E772E05FD02091880030E0409189008C
:10070000205C304E942F80E0280F391F30938900F1
:100710002093880080916F00826080936F0082E058
:100720008093D801C0E0D1E08A81882319F0E88164
:10073000F9810995249681E0C830D807A9F7289750
:10074000F3CFDA01923039F0933051F0913019F54E
:10075000E4E7F0E002C0E6E8F0E022E130E01FC0AC
:10076000813059F0813028F0823059F0833099F48B
:100770000CC0E8E9F0E084910BC0ECE9F0E0849172
:1007800007C0E6ECF0E0849103C0E8EFF0E084916C
:10079000282F30E004C0E0E0F0E020E030E0ED930E
:1007A000FC93C9010895E1E8F0E09081987F982BCF
:1007B00090830895873040F4E82FF0E0EE0FFF1F9C
:1007C000E65EFE4F7183608308951F920F920FB60D
:1007D0000F9211242F933F934F935F936F937F93C7
:1007E0008F939F93AF93BF93EF93FF938091CC012F
:1007F0009091CD01A091CE01B091CF010196A11DA4
:10080000B11D8093CC019093CD01A093CE01B09304
:10081000CF018091D0019091D101A091D201B091EE
:10082000D3010196A11DB11D8093D0019093D101F8
:10083000A093D201B093D30180911A0190911B0132
:10084000892B29F0E0911A01F0911B010995FF9184
:10085000EF91BF91AF919F918F917F916F915F9138
:100860004F913F912F910F900FBE0F901F901895B1
:100870001F920F920FB60F9211242F933F934F9315
:100880005F936F937F938F939F93AF93BF93EF93F8
:10089000FF9380911C0190911D01892B29F0E0911B
:1008A0001C01F0911D010995FF91EF91BF91AF914E
:1008B0009F918F917F916F915F914F913F912F9178
:1008C0000F900FBE0F901F9018951F920F920FB6AA
:1008D0000F9211242F933F934F935F936F937F93C6
:1008E0008F939F93AF93BF93EF93FF9380911E01DC
:1008F00090911F01892B29F0E0911E01F0911F01B9
:100900000995FF91EF91BF91AF919F918F917F9149
:100910006F915F914F913F912F910F900FBE0F906C
:100920001F9018951F920F920FB60F9211242F93BC
:100930003F934F935F936F937F938F939F93AF9367
:10094000BF93EF93FF938091200190912101892B18
:1009500029F0E0912001F09121010995FF91EF919B
:10096000BF91AF919F918F917F916F915F914F91C7
:100970003F912F910F900FBE0F901F9018951F92CF
:100980000F920FB60F9211242F933F934F935F93C3
:100990006F937F938F939F93AF93BF93EF93FF9347
:1009A0008091220190912301892B29F0E09122016D
:1009B000F09123010995FF91EF91BF91AF919F9124
:1009C0008F917F916F915F914F913F912F910F90F8
:1009D0000FBE0F901F901895529A539A5A9A5B9A8D
:1009E000089527E030E0482F50E0CA01022E02C0EF
:1009F000959587950A94E2F780FF02C05A9A01C044
:100A00005A980000000000000000000000000000F4
:100A100000000000000000000000000000000000D6
:100A200000000000000000000000000000000000C6
:100A300000000000000000000000000000000000B6
:100A400000000000000000000000000000000000A6
:100A50000000000000000000000000000000000096
:100A60000000000000000000000000000000000086
:100A70000000000000000000000000000000000076
:100A800000005B9A00000000000000000000000071
:100A90000000000000000000000000000000000056
:100AA0000000000000000000000000000000000046
:100AB0000000000000000000000000000000000036
:100AC0000000000000000000000000000000000026
:100AD0000000000000000000000000000000000016
:100AE0000000000000000000000000000000000006
:100AF00000000000000000000000000000000000F6
:100B0000000000005B98215030408FEF2F3F3807E6
:100B100009F06BCF5A9A52980000000000000000C4
:100B200000000000000000000000000000000000C5
:100B300000000000000000000000000000000000B5
:100B400000000000000000000000000000000000A5
:100B50000000000000000000000000000000000095
:100B60000000000000000000000000000000000085
:100B70000000000000000000000000000000000075
:100B80000000000000000000000000000000000065
:100B900000000000000000005B9A89B15A98000034
:100BA0000000000000000000000000000000000045
:100BB0000000000000000000000000000000000035
:100BC0000000000000000000000000000000000025
:100BD0000000000000000000000000000000000015
:100BE0000000000000000000000000000000000005
:100BF00000000000000000000000000000000000F5
:100C000000000000000000000000000000000000E4
:100C100000000000000000000000000000005B98E1
:100C2000529A0000000000000000000000000000D8
:100C300000000000000000000000000000000000B4
:100C400000000000000000000000000000000000A4
:100C50000000000000000000000000000000000094
:100C600000005A9A00000000000000000000000090
:100C70000000000000000000000000000000000074
:100C80000000000000000000000000000000000064
:100C90000000000000000000000000000000000054
:100CA0000000000000000000000000000000000044
:100CB0000000000000000000000000000000000034
:100CC0000000000000000000000000000000000024
:100CD0000000000000000000000000000000000014
:100CE000000000005A980000000000000000000012
:100CF00000000000000000000000000000000000F4
:100D000000000000000000000000000000000000E3
:100D100000000000000000000000000000000000D3
:100D200000000000000000000000000000000000C3
:100D300000000000000000000000000000000000B3
:100D400000000000000000000000000000000000A3
:100D50000000000000000000000000000000000093
:100D60000000000000000000000000000000000083
:100D70000000000000000000000000000000000073
:100D80000000000000000000000000000000000063
:100D90000000000000000000000000000000000053
:100DA0000000000000000000000000000000000043
:100DB0000000000000000000000000000000000033
:100DC0000000000000000000000000000000000023
:100DD0000000000000000000000000000000000013
:100DE000000000000000869586958095817008952A
:100DF000482F5A9A529820E030E00000000000008E
:100E000000000000000000000000000000000000E2
:100E100000000000000000000000000000000000D2
:100E200000000000000000000000000000000000C2
:100E300000000000000000000000000000000000B2
:100E400000000000000000000000000000000000A2
:100E50000000000000000000000000000000000092
:100E60000000000000000000000000000000000082
:100E7000000000000000000000005B9A000000007D
:100E80000000000000000000000000000000000062
:100E90000000000000000000000000000000000052
:100EA0000000000000000000000000000000000042
:100EB00000000000000000000000000089B1330FB6
:100EC00090E0847090709595879595958795382BCF
:100ED0000000000000000000000000000000000012
:100EE0000000000000000000000000000000000002
:100EF00000000000000000000000000000000000F2
:100F000000000000000000000000000000000000E1
:100F10005B980000000000000000000000000000DE
:100F200000000000000000000000000000000000C1
:100F300000002F5F283009F060CF529A442311F04F
:100F40005A9801C05A9A00000000000000000000FA
:100F50000000000000000000000000000000000091
:100F60000000000000000000000000000000000081
:100F70000000000000000000000000000000000071
:100F80000000000000000000000000000000000061
:100F90000000000000000000000000000000000051
:100FA0000000000000000000000000000000000041
:100FB0000000000000000000000000000000000031
:100FC0000000000000005B9A00000000000000002C
:100FD0000000000000000000000000000000000011
:100FE0000000000000000000000000000000000001
:100FF00000000000000000000000000000000000F1
:1010000000000000000000000000000000000000E0
:1010100000000000000000000000000000000000D0
:1010200000000000000000000000000000000000C0
:1010300000000000000000000000000000000000B0
:1010400000000000000000005B985A9A00000000B9
:101050000000000000000000000000000000000090
:101060000000000000000000000000000000000080
:101070000000000000000000000000000000000070
:101080000000000000000000000000000000000060
:10144000000000000000000000000000832F08954D
:101450005A9800000000000000000000000000009A
:10146000000000000000000000000000000000007C
:10147000000000000000000000000000000000006C
:10148000000000000000000000000000000000005C
:10149000000000000000000000000000000000004C
:1014A000000000000000000000000000000000003C
:1014B000000000000000000000000000000000002C
:1014C000000000000000000000000000000000001C
:1014D00000005B9800000000000000000000000019
:1014E00000000000000000000000000000000000FC
:1014F00000000000000000000000000000000000EC
:1015000000000000000000000000000000000000DB
:101510000000000066CA5A980000000000000000A9
:1015200000000000000000000000000000000000BB
:1015300000000000000000000000000000000000AB
:10154000000000000000000000000000000000009B
:10155000000000000000000000000000000000008B
:10156000000000000000000000000000000000007B
:10157000000000000000000000000000000000006B
:10158000000000000000000000000000000000005B
:1015900000000000000000005B9A00000000000056
:1015A000000000000000000000000000000000003B
:1015B000000000000000000000000000000000002B
:1015C000000000000000000000000000000000001B
:1015D000000000000000000000000000000000000B
:1015E00000000000000000000000000000000000FB
:1015F00000000000000000000000000000000000EB
:1016000000000000000000000000000000000000DA
:10161000000000000000000000005A9A00000000D6
:1016200000000000000000000000000000000000BA
:1016300000000000000000000000000000000000AA
:10164000000000000000000000000000000000009A
:10165000000000000000000000000000000000008A
:10166000000000000000000000000000000000007A
:10167000000000000000000000000000000000006A
:10168000000000000000000000000000000000005A
:1016900000000000000000000000000008959C0110
:1016A000E0E0F1E008C0808191818217930711F496
:1016B0006283089534968091D80190E0880F991F35
:1016C000880F991F80509F4FE817F90761F7089519
:1016D000DF93CF9300D0CDB7DEB7E0EEF1E080919D
:1016E000F100819381E0E83EF807C9F78091E001BD
:1016F0003091E101353009F499C0363048F4313089
:1017000009F445C0313070F0333009F064C13FC096
:10171000383009F41DC1393009F43DC1363009F0C3
:101720005AC19FC0803821F0823809F054C108C0E6
:101730009091DB018091DC01882391F0926010C0D0
:101740008091E4018093E9008091EB0090E025E036
:10175000969587952A95E1F7982F91701092E90058
:101760008091E800877F8093E8009093F1001092C9
:10177000F1008091E800982F9E7F9093E8008F778A
:101780008093E8008091E80082FFFCCFFAC08823B4
:1017900019F0823009F01FC190E08F7190700097AE
:1017A00019F00297B9F50CC08091E201813009F07F
:1017B00014C11092DC01333069F58093DC012AC03A
:1017C0008091E201882331F52091E401277009F42A
:1017D00004C12093E9008091EB0080FF1BC03130F1
:1017E000A1F48091EB0080618093EB0081E090E0B8
:1017F00002C0880F991F2A95E2F78093EA001092A1
:10180000EA008091EB00886003C08091EB00806269
:101810008093EB001092E9008091E800877F80932D
:10182000E8008091E800982F9E7FAFC0882309F0E0
:10183000D2C08091E800877F8093E8008091E80023
:10184000982F9E7F9093E8008F778093E800809197
:10185000E80080FFFCCF8091E20180688093E30084
:10186000BCC08058823008F0B6C08091E2019091EF
:10187000E3016091E401AE014F5F5F4F0E94A1035D
:101880009C01009709F4A9C08091E800877F8093AC
:10189000E8008091E6019091E7012817390720F4CC
:1018A0003093E7012093E60179816A812091E60176
:1018B0003091E70140E031C08091E80082FF05C02F
:1018C0003093E7012093E6015CC08091E80080FF3F
:1018D000F3CF872F962FFC0105C084918093F100F0
:1018E00031969A017E2F6F2F2115310539F08091A5
:1018F000F200A90141505040883078F38091F20005
:1019000040E0883009F441E08091E800982F9E7F04
:101910009093E8008F778093E80021153105A9F6B0
:101920001092E7011092E601442369F08091E800EB
:1019300080FFFCCF8091E800982F9E7F9093E80075
:101940008F778093E8008091E80082FFFCCF19C078
:10195000803809F040C08091E800877F8093E800DC
:101960008091DD018093F1008091E800982F9E7FA7
:101970009093E8008F778093E8008091E80082FFE1
:10198000FCCF8091E800982F9B7F9093E8008F77A1
:101990008093E80022C08823F1F43091DD0120918A
:1019A000E2012230D0F48091E800877F8093E80044
:1019B0002093DD018091E800982F9E7F9093E800AE
:1019C0008F778093E800332319F4222309F009D19B
:1019D0000E94EA0202C00E94B4028091E80083FFE4
:1019E0000AC08091EB0080628093EB008091E80058
:1019F000877F8093E8000F900F90CF91DF9108953B
:101A00008093E9008091EB0081608093EB0010925D
:101A1000ED006093EC004093ED008091EE00881F94
:101A20008827881F08951092F40090E09093E900B1
:101A30001092F0001092E8008091ED008D7F80936D
:101A4000ED008091EB008E7F8093EB009F5F9530DF
:101A500069F70895FC014091E6015091E7019B016F
:101A60004617570708F49A0140E01EC08091E8002D
:101A700080FFFCCF06C081918093F100215030405F
:101A800021F08091F2008830B0F38091F20040E0C4
:101A9000883009F441E08091E800982F9E7F909370
:101AA000E8008F778093E8002115310521F08091BF
:101AB000E80082FFDBCF8091E80082FF02C081E076
:101AC0000895442369F08091E80080FFFCCF809165
:101AD000E800982F9E7F9093E8008F778093E8002E
:101AE0008091E80082FFFCCF80E00895FC0118C0DF
:101AF0008091E80082FFFCCF06C08091F1008193C5
:101B00006150704021F08091F2008823B1F78091FC
:101B1000E800982F9B7F9093E8008F778093E800F0
:101B20006115710529F78091E80080FFFCCF80E006
:101B3000089558D05AD01092DF011092DD01109212
:101B4000E8011092DC011092DB0184E089BD89B5C7
:101B5000826089BD09B400FEFDCF8091D800982F26
:101B60009F779093D80080688093D800809163001D
:101B70008E7F809363008091D8008F7D8093D80002
:101B80008091E0008E7F8093E0008091E200816090
:101B90008093E2008091E20088608093E2000895E3
:101BA0008091DF01882311F00E94EF028091E00014
:101BB00081608093E00016D018D01092DF0110925F
:101BC000DE011092DD018091D8008F778093D800DC
:101BD00019BC0895E5DFADDF81E08093DE017894E4
:101BE000089508951092E20008951092E10008957A
:101BF0001F920F920FB60F9211242F933F934F9382
:101C00005F936F937F938F939F93AF93BF93EF9364
:101C1000FF938091E10080FF25C08091E20080FF6A
:101C200021C08091E1008E7F8093E1008091E200ED
:101C30008E7F8093E2008091E20080618093E200D9
:101C40008091D80080628093D80019BC81E0809395
:101C5000E801C7DF8091DF01882321F01092DF01C6
:101C60000E94EF028091E10084FF2CC08091E2008D
:101C700084FF28C084E089BD89B5826089BD09B42C
:101C800000FEFDCF8091D8008F7D8093D800809199
:101C9000E1008F7E8093E1008091E2008F7E80934F
:101CA000E2008091E20081608093E2008091DF0198
:101CB000882329F481E08093DF010E94F4021092CE
:101CC000E8018FDF8091E10083FF20C08091E20076
:101CD00083FF1CC08091E100877F8093E100109218
:101CE000DD018091E1008E7F8093E1008091E20030
:101CF0008E7F8093E2008091E20080618093E20019
:101D000092DE80E060E042E07BDE6BDFFF91EF91EE
:101D1000BF91AF919F918F917F916F915F914F9103
:101D20003F912F910F900FBE0F901F9018950F931A
:101D30001F938091DF01882379F00091E9001092D0
:101D4000E9008091E80083FF04C01FB7F894C0DC6D
:101D50001FBF07700093E9001F910F910895F89439
:021D6000FFCFB3
:0C1D6200970E000081010000010100301C
:00000001FF
